{
  "_format": "hh-sol-artifact-1",
  "contractName": "TwitterContract",
  "sourceName": "contracts/Tweet.sol",
  "abi": [
    {
      "anonymous": false,
      "inputs": [
        {
          "indexed": false,
          "internalType": "address",
          "name": "recipient",
          "type": "address"
        },
        {
          "indexed": false,
          "internalType": "uint256",
          "name": "tweetId",
          "type": "uint256"
        }
      ],
      "name": "AddTweet",
      "type": "event"
    },
    {
      "anonymous": false,
      "inputs": [
        {
          "indexed": false,
          "internalType": "uint256",
          "name": "tweetId",
          "type": "uint256"
        },
        {
          "indexed": false,
          "internalType": "bool",
          "name": "isDeleted",
          "type": "bool"
        }
      ],
      "name": "DeleteTweet",
      "type": "event"
    },
    {
      "inputs": [
        {
          "internalType": "string",
          "name": "tweetText",
          "type": "string"
        },
        {
          "internalType": "bool",
          "name": "isDeleted",
          "type": "bool"
        }
      ],
      "name": "addTweet",
      "outputs": [],
      "stateMutability": "nonpayable",
      "type": "function"
    },
    {
      "inputs": [
        {
          "internalType": "uint256",
          "name": "tweetId",
          "type": "uint256"
        },
        {
          "internalType": "bool",
          "name": "isDeleted",
          "type": "bool"
        }
      ],
      "name": "deleteTweet",
      "outputs": [],
      "stateMutability": "nonpayable",
      "type": "function"
    },
    {
      "inputs": [],
      "name": "getAllTweets",
      "outputs": [
        {
          "components": [
            {
              "internalType": "uint256",
              "name": "id",
              "type": "uint256"
            },
            {
              "internalType": "address",
              "name": "username",
              "type": "address"
            },
            {
              "internalType": "string",
              "name": "tweetText",
              "type": "string"
            },
            {
              "internalType": "bool",
              "name": "isDeleted",
              "type": "bool"
            }
          ],
          "internalType": "struct TwitterContract.Tweet[]",
          "name": "",
          "type": "tuple[]"
        }
      ],
      "stateMutability": "view",
      "type": "function"
    },
    {
      "inputs": [],
      "name": "getMyTweets",
      "outputs": [
        {
          "components": [
            {
              "internalType": "uint256",
              "name": "id",
              "type": "uint256"
            },
            {
              "internalType": "address",
              "name": "username",
              "type": "address"
            },
            {
              "internalType": "string",
              "name": "tweetText",
              "type": "string"
            },
            {
              "internalType": "bool",
              "name": "isDeleted",
              "type": "bool"
            }
          ],
          "internalType": "struct TwitterContract.Tweet[]",
          "name": "",
          "type": "tuple[]"
        }
      ],
      "stateMutability": "view",
      "type": "function"
    },
    {
      "inputs": [],
      "name": "getNameAnduseradd",
      "outputs": [
        {
          "internalType": "string",
          "name": "",
          "type": "string"
        },
        {
          "internalType": "string",
          "name": "",
          "type": "string"
        }
      ],
      "stateMutability": "view",
      "type": "function"
    },
    {
      "inputs": [
        {
          "internalType": "string",
          "name": "_name",
          "type": "string"
        },
        {
          "internalType": "string",
          "name": "_useradd",
          "type": "string"
        }
      ],
      "name": "setNameAndUseradd",
      "outputs": [],
      "stateMutability": "nonpayable",
      "type": "function"
    }
  ],
  "bytecode": "0x608060405234801561001057600080fd5b5061133a806100206000396000f3fe608060405234801561001057600080fd5b50600436106100625760003560e01c8063176274921461006757806353256135146100835780638cc3d16c146100a1578063aefedbc2146100c0578063e580339f146100de578063f0312a37146100fa575b600080fd5b610081600480360381019061007c9190610d4c565b610116565b005b61008b610148565b6040516100989190610fe6565b60405180910390f35b6100a961042b565b6040516100b7929190611052565b60405180910390f35b6100c8610552565b6040516100d59190610fe6565b60405180910390f35b6100f860048036038101906100f391906110b5565b61089f565b005b610114600480360381019061010f919061113d565b610a2d565b005b816000908051906020019061012c929190610b0f565b508060019080519060200190610143929190610b0f565b505050565b6060600060028054905067ffffffffffffffff81111561016b5761016a610c21565b5b6040519080825280602002602001820160405280156101a457816020015b610191610b95565b8152602001906001900390816101895790505b5090506000805b6002805490508110156103715760001515600282815481106101d0576101cf61117d565b5b906000526020600020906004020160030160009054906101000a900460ff161515141561035e576002818154811061020b5761020a61117d565b5b9060005260206000209060040201604051806080016040529081600082015481526020016001820160009054906101000a900473ffffffffffffffffffffffffffffffffffffffff1673ffffffffffffffffffffffffffffffffffffffff1673ffffffffffffffffffffffffffffffffffffffff168152602001600282018054610294906111db565b80601f01602080910402602001604051908101604052809291908181526020018280546102c0906111db565b801561030d5780601f106102e25761010080835404028352916020019161030d565b820191906000526020600020905b8154815290600101906020018083116102f057829003601f168201915b505050505081526020016003820160009054906101000a900460ff1615151515815250508383815181106103445761034361117d565b5b6020026020010181905250818061035a9061123c565b9250505b80806103699061123c565b9150506101ab565b5060008167ffffffffffffffff81111561038e5761038d610c21565b5b6040519080825280602002602001820160405280156103c757816020015b6103b4610b95565b8152602001906001900390816103ac5790505b50905060005b82811015610421578381815181106103e8576103e761117d565b5b60200260200101518282815181106104035761040261117d565b5b602002602001018190525080806104199061123c565b9150506103cd565b5080935050505090565b6060806000600181805461043e906111db565b80601f016020809104026020016040519081016040528092919081815260200182805461046a906111db565b80156104b75780601f1061048c576101008083540402835291602001916104b7565b820191906000526020600020905b81548152906001019060200180831161049a57829003601f168201915b505050505091508080546104ca906111db565b80601f01602080910402602001604051908101604052809291908181526020018280546104f6906111db565b80156105435780601f1061051857610100808354040283529160200191610543565b820191906000526020600020905b81548152906001019060200180831161052657829003601f168201915b50505050509050915091509091565b6060600060028054905067ffffffffffffffff81111561057557610574610c21565b5b6040519080825280602002602001820160405280156105ae57816020015b61059b610b95565b8152602001906001900390816105935790505b5090506000805b6002805490508110156107e5573373ffffffffffffffffffffffffffffffffffffffff166003600083815260200190815260200160002060009054906101000a900473ffffffffffffffffffffffffffffffffffffffff1673ffffffffffffffffffffffffffffffffffffffff16148015610666575060001515600282815481106106435761064261117d565b5b906000526020600020906004020160030160009054906101000a900460ff161515145b156107d2576002818154811061067f5761067e61117d565b5b9060005260206000209060040201604051806080016040529081600082015481526020016001820160009054906101000a900473ffffffffffffffffffffffffffffffffffffffff1673ffffffffffffffffffffffffffffffffffffffff1673ffffffffffffffffffffffffffffffffffffffff168152602001600282018054610708906111db565b80601f0160208091040260200160405190810160405280929190818152602001828054610734906111db565b80156107815780601f1061075657610100808354040283529160200191610781565b820191906000526020600020905b81548152906001019060200180831161076457829003601f168201915b505050505081526020016003820160009054906101000a900460ff1615151515815250508383815181106107b8576107b761117d565b5b602002602001018190525081806107ce9061123c565b9250505b80806107dd9061123c565b9150506105b5565b5060008167ffffffffffffffff81111561080257610801610c21565b5b60405190808252806020026020018201604052801561083b57816020015b610828610b95565b8152602001906001900390816108205790505b50905060005b828110156108955783818151811061085c5761085b61117d565b5b60200260200101518282815181106108775761087661117d565b5b6020026020010181905250808061088d9061123c565b915050610841565b5080935050505090565b60006002805490509050600260405180608001604052808381526020013373ffffffffffffffffffffffffffffffffffffffff16815260200185815260200184151581525090806001815401808255809150506001900390600052602060002090600402016000909190919091506000820151816000015560208201518160010160006101000a81548173ffffffffffffffffffffffffffffffffffffffff021916908373ffffffffffffffffffffffffffffffffffffffff160217905550604082015181600201908051906020019061097a929190610b0f565b5060608201518160030160006101000a81548160ff0219169083151502179055505050336003600083815260200190815260200160002060006101000a81548173ffffffffffffffffffffffffffffffffffffffff021916908373ffffffffffffffffffffffffffffffffffffffff1602179055507f8b2db9b424f26463510ef5b02c16f2465836b52081b51d2112ec76102053bdea3382604051610a209291906112a3565b60405180910390a1505050565b3373ffffffffffffffffffffffffffffffffffffffff166003600084815260200190815260200160002060009054906101000a900473ffffffffffffffffffffffffffffffffffffffff1673ffffffffffffffffffffffffffffffffffffffff161415610b0b578060028381548110610aa957610aa861117d565b5b906000526020600020906004020160030160006101000a81548160ff0219169083151502179055507f2430f837dd2fb40e08c064be9db3d0cf2a7a21f8fe716a2a41787dafc66a7e2a8282604051610b029291906112db565b60405180910390a15b5050565b828054610b1b906111db565b90600052602060002090601f016020900481019282610b3d5760008555610b84565b82601f10610b5657805160ff1916838001178555610b84565b82800160010185558215610b84579182015b82811115610b83578251825591602001919060010190610b68565b5b509050610b919190610bd5565b5090565b604051806080016040528060008152602001600073ffffffffffffffffffffffffffffffffffffffff168152602001606081526020016000151581525090565b5b80821115610bee576000816000905550600101610bd6565b5090565b6000604051905090565b600080fd5b600080fd5b600080fd5b600080fd5b6000601f19601f8301169050919050565b7f4e487b7100000000000000000000000000000000000000000000000000000000600052604160045260246000fd5b610c5982610c10565b810181811067ffffffffffffffff82111715610c7857610c77610c21565b5b80604052505050565b6000610c8b610bf2565b9050610c978282610c50565b919050565b600067ffffffffffffffff821115610cb757610cb6610c21565b5b610cc082610c10565b9050602081019050919050565b82818337600083830152505050565b6000610cef610cea84610c9c565b610c81565b905082815260208101848484011115610d0b57610d0a610c0b565b5b610d16848285610ccd565b509392505050565b600082601f830112610d3357610d32610c06565b5b8135610d43848260208601610cdc565b91505092915050565b60008060408385031215610d6357610d62610bfc565b5b600083013567ffffffffffffffff811115610d8157610d80610c01565b5b610d8d85828601610d1e565b925050602083013567ffffffffffffffff811115610dae57610dad610c01565b5b610dba85828601610d1e565b9150509250929050565b600081519050919050565b600082825260208201905092915050565b6000819050602082019050919050565b6000819050919050565b610e0381610df0565b82525050565b600073ffffffffffffffffffffffffffffffffffffffff82169050919050565b6000610e3482610e09565b9050919050565b610e4481610e29565b82525050565b600081519050919050565b600082825260208201905092915050565b60005b83811015610e84578082015181840152602081019050610e69565b83811115610e93576000848401525b50505050565b6000610ea482610e4a565b610eae8185610e55565b9350610ebe818560208601610e66565b610ec781610c10565b840191505092915050565b60008115159050919050565b610ee781610ed2565b82525050565b6000608083016000830151610f056000860182610dfa565b506020830151610f186020860182610e3b565b5060408301518482036040860152610f308282610e99565b9150506060830151610f456060860182610ede565b508091505092915050565b6000610f5c8383610eed565b905092915050565b6000602082019050919050565b6000610f7c82610dc4565b610f868185610dcf565b935083602082028501610f9885610de0565b8060005b85811015610fd45784840389528151610fb58582610f50565b9450610fc083610f64565b925060208a01995050600181019050610f9c565b50829750879550505050505092915050565b600060208201905081810360008301526110008184610f71565b905092915050565b600082825260208201905092915050565b600061102482610e4a565b61102e8185611008565b935061103e818560208601610e66565b61104781610c10565b840191505092915050565b6000604082019050818103600083015261106c8185611019565b905081810360208301526110808184611019565b90509392505050565b61109281610ed2565b811461109d57600080fd5b50565b6000813590506110af81611089565b92915050565b600080604083850312156110cc576110cb610bfc565b5b600083013567ffffffffffffffff8111156110ea576110e9610c01565b5b6110f685828601610d1e565b9250506020611107858286016110a0565b9150509250929050565b61111a81610df0565b811461112557600080fd5b50565b60008135905061113781611111565b92915050565b6000806040838503121561115457611153610bfc565b5b600061116285828601611128565b9250506020611173858286016110a0565b9150509250929050565b7f4e487b7100000000000000000000000000000000000000000000000000000000600052603260045260246000fd5b7f4e487b7100000000000000000000000000000000000000000000000000000000600052602260045260246000fd5b600060028204905060018216806111f357607f821691505b60208210811415611207576112066111ac565b5b50919050565b7f4e487b7100000000000000000000000000000000000000000000000000000000600052601160045260246000fd5b600061124782610df0565b91507fffffffffffffffffffffffffffffffffffffffffffffffffffffffffffffffff82141561127a5761127961120d565b5b600182019050919050565b61128e81610e29565b82525050565b61129d81610df0565b82525050565b60006040820190506112b86000830185611285565b6112c56020830184611294565b9392505050565b6112d581610ed2565b82525050565b60006040820190506112f06000830185611294565b6112fd60208301846112cc565b939250505056fea26469706673582212209db4accd3c80b3f236e31444f0ea08d2808ddfe06e6380d6c22232ad5b35ecfe64736f6c63430008090033",
  "linkReferences": {},
  "deployedLinkReferences": {}
}